:1000000012C02AC029C028C027C026C025C024C0CD
:1000100023C022C021C085C31FC0FFC21DC01CC099
:100020001BC01AC019C011241FBECFEDCDBF10E0F8
:10003000A0E6B0E0ECE5F7E002C005900D92A43632
:10004000B107D9F710E0A4E6B0E001C01D92AE37C9
:10005000B107E1F7ADD280C3D3CF9093670080930F
:10006000660085B7806285BF889585B78F7D85BF1F
:100070008091660090916700009799F708959C0120
:1000800021703070309521953F4F2070347B9695CC
:10009000879528273927C9010895482F4770440FAD
:1000A00023E030E0042E02C0220F331F0A94E2F74F
:1000B000869586958695E82FF0E0EE0FFF1FEB58AA
:1000C000FF4F808191812823392302C036952795DF
:1000D0004A95E2F7FB0131832083089582B3807C47
:1000E00082BB0895DF93CF930F92CDB7DEB789839C
:1000F000F5DF909162008981891769F4823011F4EB
:10010000939A01C0929A94E190936E0080936F004D
:100110009093700015C092B321E030E0082E02C029
:10012000220F331F0A94E2F7922B92BB94E1909333
:100130006E009FEF90936F001092700080936200AA
:100140000F90CF91DF91089580E090E020916400BE
:1001500030E0082E02C0359527950A94E2F720FF7B
:1001600002C0C0DF089501968630910579F70895A1
:100170009698D898C798D99810926D0010926C00F4
:1001800008950F931F93DF93CF930F92CDB7DEB7F0
:100190008B01442319F08983EBDF8981843020F4BB
:1001A00010936D0000936C00813049F0813028F08D
:1001B000823039F0833041F406C0969A05C0D89A4F
:1001C00003C0C79A01C0D99A0F90CF91DF911F91B8
:1001D0000F91089507C085B7806285BF889585B760
:1001E0008F7D85BF80916C0090916D00009799F78D
:1001F0000895CF93DF93C0E0D0E08091640090E059
:100200000C2E02C0959587950A94E2F780FF05C0F1
:100210008C2F68EE73E040E0B4DF2196C430D10546
:1002200061F7DF91CF910895EF92FF920F931F93A3
:10023000CF93DF93E82EEB01FF24F39400E010E06E
:100240000BC0812FBE0141E09CDFC4DF1F0D11F008
:10025000133009F4F1940F5F0E1598F3DF91CF91ED
:100260001F910F91FF90EF90089589E161E070E098
:10027000DBDF089583E08ABB80E887BB8FE781BB23
:100280001BBA18BA12BA089585B78F7A85BF4798F6
:10029000F89483B7886083BF83B7826083BF8DE79C
:1002A00086BF89B7816089BF8FE780BD7894089544
:1002B0008BB780628BBF08958BB78F7D8BBF0895FE
:1002C00086B3806880936400089510926400109251
:1002D0006500EEDF87E064E670E0A6DF81E0089568
:1002E0008091600090916100CADE909361008093DC
:1002F00060008130910509F4B8DF809164008823A3
:10030000D9F080916800909169000097A9F4D4DF3A
:10031000D7DF8091640086FD11C0909164008091C8
:100320006500981741F0DADE23DF0EDF62DF80918F
:10033000640080936500BCDF81E0089582E0089549
:10034000CF93DF938091600090916100C5E7D0E08A
:1003500096DE8993999320E0CD37D207C9F7909321
:1003600061008093600089E162E370E05DDF1092DC
:10037000730010926400109265009EDF83E0DF91AD
:10038000CF9108950F931F9310E01EC0112319F011
:1003900082E390E062DE812F61E770E07EDE06306E
:1003A00028F00E3030F468E572E005C060EB74E0D0
:1003B00002C060E971E08091710041E0E2DE80916D
:1003C000710090DE07DF1F5F009173001017F0F2DD
:1003D0006FDF84E01F910F9108951F93CF93DF93F8
:1003E0008091640086FD03C063DF80E037C08091A8
:1003F0006400807311F0A8DE30C08091640090E04A
:100400008F709070009721F19FDEC0E0D0E01FEF69
:100410008091640090E00C2E02C0959587950A9417
:10042000E2F780FF08C08C2F68EE73E041E0A9DEA0
:100430001F3F99F41C2F2196C430D10549F78091B4
:100440007100181719F41092740005C01F3F29F4A9
:1004500045DE8EDE2DDF84E001C086E0DF91CF91A6
:100460001F91089588E893E190936B0080936A0050
:1004700081E0809374008091600090916100FFDDC5
:10048000909361008093600080916A0090916B006E
:10049000009791F180916400882389F08091680031
:1004A00090916900009759F40BDF97DF80937D00EE
:1004B00080917D00843019F080917D00089585B78A
:1004C000806285BF889585B78F7D85BF80917400D8
:1004D000882389F685B7806285BF889585B78F7D2B
:1004E00085BFEEDE8091640090E08F73907000977E
:1004F00089F73EDE84E0089586E008951F9310E0BA
:100500000FC0812F61E770E0C8DDACDF80937D0014
:1005100080917D00843019F080917D0029C01F5F9B
:1005200080917300181768F3182F1F5F10937300E2
:10053000C3DE1032E1F0193029F488EE93E08DDD4E
:1005400089E10DC01F3029F488EE93E086DD81E358
:1005500006C0153139F488EE93E07FDD89E462E36B
:1005600070E062DE88EE93E078DD83E001C085E034
:100570001F91089585E0B6DD86E96AE070E054DEFB
:1005800080ED97E06ADD82E008951F9384EF91E0AB
:1005900064DD84E0A7DD1AE068DE89E190E05DDDDE
:1005A0001150D1F780ED97E058DD82E01F9108955A
:1005B00061DE6ADEB69B02C082E001C080E080930B
:1005C0007D0080917D00833089F0843028F4882379
:1005D000B1F08230B9F407C0853069F0853048F059
:1005E000863081F40AC0ACDE80937D00CBDE809340
:1005F0007D0084DF08C0BEDF06C0C7DF04C065DE43
:1006000080937D006DDE80937D0085B7806285BF1D
:10061000889585B78F7D85BFD4CF1F920F920FB677
:100620000F9211242F933F934F935F936F937F9378
:100630008F939F93AF93BF93EF93FF938091660047
:1006400090916700009749F0809166009091670053
:100650000197909367008093660080916800909165
:100660006900009749F080916800909169000197B6
:10067000909369008093680080916A0090916B006C
:10068000009749F080916A0090916B0001979093D8
:100690006B0080936A0080916C0090916D000097D0
:1006A00051F080916C0090916D00019790936D00D6
:1006B00080936C0001C05CDD80916E00882331F076
:1006C00080916E00815080936E001AC082B3807C4E
:1006D00082BB30916F003F3F71F022B381E090E028
:1006E00002C0880F991F3A95E2F7282B22BB809110
:1006F000700080936E00109270008FEF80936F00F7
:10070000FF91EF91BF91AF919F918F917F916F91E9
:100710005F914F913F912F910F900FBE0F901F90BF
:1007200018951F920F920FB60F9211248F939F93DB
:100730008BB78F7D8BBF86B380688093640080E524
:1007400090E090936900809368009F918F910F9043
:0C0750000FBE0F901F901895F894FFCF7B
:04075C003930FF0031
:00000001FF
